{
  "contractName": "KaijuCoin",
  "abi": [
    {
      "inputs": [
        {
          "internalType": "uint256",
          "name": "_initialAmount",
          "type": "uint256"
        },
        {
          "internalType": "string",
          "name": "_tokenName",
          "type": "string"
        },
        {
          "internalType": "uint8",
          "name": "_decimalUnits",
          "type": "uint8"
        },
        {
          "internalType": "string",
          "name": "_tokenSymbol",
          "type": "string"
        }
      ],
      "stateMutability": "nonpayable",
      "type": "constructor"
    },
    {
      "anonymous": false,
      "inputs": [
        {
          "indexed": true,
          "internalType": "address",
          "name": "_owner",
          "type": "address"
        },
        {
          "indexed": true,
          "internalType": "address",
          "name": "_spender",
          "type": "address"
        },
        {
          "indexed": false,
          "internalType": "uint256",
          "name": "_value",
          "type": "uint256"
        }
      ],
      "name": "Approval",
      "type": "event"
    },
    {
      "anonymous": false,
      "inputs": [
        {
          "indexed": true,
          "internalType": "address",
          "name": "_from",
          "type": "address"
        },
        {
          "indexed": true,
          "internalType": "address",
          "name": "_to",
          "type": "address"
        },
        {
          "indexed": false,
          "internalType": "uint256",
          "name": "_value",
          "type": "uint256"
        }
      ],
      "name": "Transfer",
      "type": "event"
    },
    {
      "inputs": [
        {
          "internalType": "address",
          "name": "",
          "type": "address"
        },
        {
          "internalType": "address",
          "name": "",
          "type": "address"
        }
      ],
      "name": "allowances",
      "outputs": [
        {
          "internalType": "uint256",
          "name": "",
          "type": "uint256"
        }
      ],
      "stateMutability": "view",
      "type": "function"
    },
    {
      "inputs": [
        {
          "internalType": "address",
          "name": "",
          "type": "address"
        }
      ],
      "name": "balances",
      "outputs": [
        {
          "internalType": "uint256",
          "name": "",
          "type": "uint256"
        }
      ],
      "stateMutability": "view",
      "type": "function"
    },
    {
      "inputs": [],
      "name": "decimals",
      "outputs": [
        {
          "internalType": "uint8",
          "name": "",
          "type": "uint8"
        }
      ],
      "stateMutability": "view",
      "type": "function"
    },
    {
      "inputs": [],
      "name": "name",
      "outputs": [
        {
          "internalType": "string",
          "name": "",
          "type": "string"
        }
      ],
      "stateMutability": "view",
      "type": "function"
    },
    {
      "inputs": [],
      "name": "symbol",
      "outputs": [
        {
          "internalType": "string",
          "name": "",
          "type": "string"
        }
      ],
      "stateMutability": "view",
      "type": "function"
    },
    {
      "inputs": [],
      "name": "totalSupply",
      "outputs": [
        {
          "internalType": "uint256",
          "name": "",
          "type": "uint256"
        }
      ],
      "stateMutability": "view",
      "type": "function"
    },
    {
      "inputs": [
        {
          "internalType": "address",
          "name": "_to",
          "type": "address"
        },
        {
          "internalType": "uint256",
          "name": "_value",
          "type": "uint256"
        }
      ],
      "name": "transfer",
      "outputs": [
        {
          "internalType": "bool",
          "name": "success",
          "type": "bool"
        }
      ],
      "stateMutability": "nonpayable",
      "type": "function"
    },
    {
      "inputs": [
        {
          "internalType": "address",
          "name": "_from",
          "type": "address"
        },
        {
          "internalType": "address",
          "name": "_to",
          "type": "address"
        },
        {
          "internalType": "uint256",
          "name": "_value",
          "type": "uint256"
        }
      ],
      "name": "transferFrom",
      "outputs": [
        {
          "internalType": "bool",
          "name": "success",
          "type": "bool"
        }
      ],
      "stateMutability": "nonpayable",
      "type": "function"
    },
    {
      "inputs": [
        {
          "internalType": "address",
          "name": "_owner",
          "type": "address"
        }
      ],
      "name": "balanceOf",
      "outputs": [
        {
          "internalType": "uint256",
          "name": "balance",
          "type": "uint256"
        }
      ],
      "stateMutability": "view",
      "type": "function"
    },
    {
      "inputs": [
        {
          "internalType": "address",
          "name": "_spender",
          "type": "address"
        },
        {
          "internalType": "uint256",
          "name": "_value",
          "type": "uint256"
        }
      ],
      "name": "approve",
      "outputs": [
        {
          "internalType": "bool",
          "name": "success",
          "type": "bool"
        }
      ],
      "stateMutability": "nonpayable",
      "type": "function"
    },
    {
      "inputs": [
        {
          "internalType": "address",
          "name": "_owner",
          "type": "address"
        },
        {
          "internalType": "address",
          "name": "_spender",
          "type": "address"
        }
      ],
      "name": "allowance",
      "outputs": [
        {
          "internalType": "uint256",
          "name": "remaining",
          "type": "uint256"
        }
      ],
      "stateMutability": "view",
      "type": "function"
    }
  ],
  "bytecode": "0x60806040526b033b2e3c9fd0803ce80000006002556040518060400160405280600a81526020017f4b61696a7520436f696e00000000000000000000000000000000000000000000815250600390805190602001906200006192919062000199565b506012600460006101000a81548160ff021916908360ff1602179055506040518060400160405280600381526020017f4b4149000000000000000000000000000000000000000000000000000000000081525060059080519060200190620000cb92919062000199565b50348015620000d957600080fd5b50604051620014c7380380620014c78339818101604052810190620000ff9190620002e9565b836000803373ffffffffffffffffffffffffffffffffffffffff1673ffffffffffffffffffffffffffffffffffffffff1681526020019081526020016000208190555082600390805190602001906200015a92919062000199565b5081600460006101000a81548160ff021916908360ff16021790555080600590805190602001906200018e92919062000199565b505050505062000542565b828054620001a79062000433565b90600052602060002090601f016020900481019282620001cb576000855562000217565b82601f10620001e657805160ff191683800117855562000217565b8280016001018555821562000217579182015b8281111562000216578251825591602001919060010190620001f9565b5b5090506200022691906200022a565b5090565b5b80821115620002455760008160009055506001016200022b565b5090565b6000620002606200025a84620003b0565b62000387565b9050828152602081018484840111156200027957600080fd5b62000286848285620003fd565b509392505050565b600082601f830112620002a057600080fd5b8151620002b284826020860162000249565b91505092915050565b600081519050620002cc816200050e565b92915050565b600081519050620002e38162000528565b92915050565b600080600080608085870312156200030057600080fd5b60006200031087828801620002bb565b945050602085015167ffffffffffffffff8111156200032e57600080fd5b6200033c878288016200028e565b93505060406200034f87828801620002d2565b925050606085015167ffffffffffffffff8111156200036d57600080fd5b6200037b878288016200028e565b91505092959194509250565b600062000393620003a6565b9050620003a1828262000469565b919050565b6000604051905090565b600067ffffffffffffffff821115620003ce57620003cd620004ce565b5b620003d982620004fd565b9050602081019050919050565b6000819050919050565b600060ff82169050919050565b60005b838110156200041d57808201518184015260208101905062000400565b838111156200042d576000848401525b50505050565b600060028204905060018216806200044c57607f821691505b602082108114156200046357620004626200049f565b5b50919050565b6200047482620004fd565b810181811067ffffffffffffffff82111715620004965762000495620004ce565b5b80604052505050565b7f4e487b7100000000000000000000000000000000000000000000000000000000600052602260045260246000fd5b7f4e487b7100000000000000000000000000000000000000000000000000000000600052604160045260246000fd5b6000601f19601f8301169050919050565b6200051981620003e6565b81146200052557600080fd5b50565b6200053381620003f0565b81146200053f57600080fd5b50565b610f7580620005526000396000f3fe608060405234801561001057600080fd5b50600436106100a95760003560e01c8063313ce56711610071578063313ce5671461017a57806355b6ed5c1461019857806370a08231146101c857806395d89b41146101f8578063a9059cbb14610216578063dd62ed3e14610246576100a9565b806306fdde03146100ae578063095ea7b3146100cc57806318160ddd146100fc57806323b872dd1461011a57806327e235e31461014a575b600080fd5b6100b6610276565b6040516100c39190610c0c565b60405180910390f35b6100e660048036038101906100e19190610b09565b610304565b6040516100f39190610bf1565b60405180910390f35b6101046103f6565b6040516101119190610c6e565b60405180910390f35b610134600480360381019061012f9190610aba565b6103fc565b6040516101419190610bf1565b60405180910390f35b610164600480360381019061015f9190610a55565b6106e2565b6040516101719190610c6e565b60405180910390f35b6101826106fa565b60405161018f9190610c89565b60405180910390f35b6101b260048036038101906101ad9190610a7e565b61070d565b6040516101bf9190610c6e565b60405180910390f35b6101e260048036038101906101dd9190610a55565b610732565b6040516101ef9190610c6e565b60405180910390f35b61020061077a565b60405161020d9190610c0c565b60405180910390f35b610230600480360381019061022b9190610b09565b610808565b60405161023d9190610bf1565b60405180910390f35b610260600480360381019061025b9190610a7e565b6109a4565b60405161026d9190610c6e565b60405180910390f35b6003805461028390610dd2565b80601f01602080910402602001604051908101604052809291908181526020018280546102af90610dd2565b80156102fc5780601f106102d1576101008083540402835291602001916102fc565b820191906000526020600020905b8154815290600101906020018083116102df57829003601f168201915b505050505081565b600081600160003373ffffffffffffffffffffffffffffffffffffffff1673ffffffffffffffffffffffffffffffffffffffff16815260200190815260200160002060008573ffffffffffffffffffffffffffffffffffffffff1673ffffffffffffffffffffffffffffffffffffffff168152602001908152602001600020819055508273ffffffffffffffffffffffffffffffffffffffff163373ffffffffffffffffffffffffffffffffffffffff167f8c5be1e5ebec7d5bd14f71427d1e84f3dd0314c0f7b2291e5b200ac8c7c3b925846040516103e49190610c6e565b60405180910390a36001905092915050565b60025481565b600080600160008673ffffffffffffffffffffffffffffffffffffffff1673ffffffffffffffffffffffffffffffffffffffff16815260200190815260200160002060003373ffffffffffffffffffffffffffffffffffffffff1673ffffffffffffffffffffffffffffffffffffffff168152602001908152602001600020549050826000808773ffffffffffffffffffffffffffffffffffffffff1673ffffffffffffffffffffffffffffffffffffffff16815260200190815260200160002054101580156104cc5750828110155b61050b576040517f08c379a000000000000000000000000000000000000000000000000000000000815260040161050290610c4e565b60405180910390fd5b826000808773ffffffffffffffffffffffffffffffffffffffff1673ffffffffffffffffffffffffffffffffffffffff16815260200190815260200160002060008282546105599190610d16565b92505081905550826000808673ffffffffffffffffffffffffffffffffffffffff1673ffffffffffffffffffffffffffffffffffffffff16815260200190815260200160002060008282546105ae9190610cc0565b925050819055507fffffffffffffffffffffffffffffffffffffffffffffffffffffffffffffffff8110156106715782600160008773ffffffffffffffffffffffffffffffffffffffff1673ffffffffffffffffffffffffffffffffffffffff16815260200190815260200160002060003373ffffffffffffffffffffffffffffffffffffffff1673ffffffffffffffffffffffffffffffffffffffff16815260200190815260200160002060008282546106699190610d16565b925050819055505b8373ffffffffffffffffffffffffffffffffffffffff168573ffffffffffffffffffffffffffffffffffffffff167fddf252ad1be2c89b69c2b068fc378daa952ba7f163c4a11628f55a4df523b3ef856040516106ce9190610c6e565b60405180910390a360019150509392505050565b60006020528060005260406000206000915090505481565b600460009054906101000a900460ff1681565b6001602052816000526040600020602052806000526040600020600091509150505481565b60008060008373ffffffffffffffffffffffffffffffffffffffff1673ffffffffffffffffffffffffffffffffffffffff168152602001908152602001600020549050919050565b6005805461078790610dd2565b80601f01602080910402602001604051908101604052809291908181526020018280546107b390610dd2565b80156108005780601f106107d557610100808354040283529160200191610800565b820191906000526020600020905b8154815290600101906020018083116107e357829003601f168201915b505050505081565b6000816000803373ffffffffffffffffffffffffffffffffffffffff1673ffffffffffffffffffffffffffffffffffffffff16815260200190815260200160002054101561088b576040517f08c379a000000000000000000000000000000000000000000000000000000000815260040161088290610c2e565b60405180910390fd5b816000803373ffffffffffffffffffffffffffffffffffffffff1673ffffffffffffffffffffffffffffffffffffffff16815260200190815260200160002060008282546108d99190610d16565b92505081905550816000808573ffffffffffffffffffffffffffffffffffffffff1673ffffffffffffffffffffffffffffffffffffffff168152602001908152602001600020600082825461092e9190610cc0565b925050819055508273ffffffffffffffffffffffffffffffffffffffff163373ffffffffffffffffffffffffffffffffffffffff167fddf252ad1be2c89b69c2b068fc378daa952ba7f163c4a11628f55a4df523b3ef846040516109929190610c6e565b60405180910390a36001905092915050565b6000600160008473ffffffffffffffffffffffffffffffffffffffff1673ffffffffffffffffffffffffffffffffffffffff16815260200190815260200160002060008373ffffffffffffffffffffffffffffffffffffffff1673ffffffffffffffffffffffffffffffffffffffff16815260200190815260200160002054905092915050565b600081359050610a3a81610f11565b92915050565b600081359050610a4f81610f28565b92915050565b600060208284031215610a6757600080fd5b6000610a7584828501610a2b565b91505092915050565b60008060408385031215610a9157600080fd5b6000610a9f85828601610a2b565b9250506020610ab085828601610a2b565b9150509250929050565b600080600060608486031215610acf57600080fd5b6000610add86828701610a2b565b9350506020610aee86828701610a2b565b9250506040610aff86828701610a40565b9150509250925092565b60008060408385031215610b1c57600080fd5b6000610b2a85828601610a2b565b9250506020610b3b85828601610a40565b9150509250929050565b610b4e81610d5c565b82525050565b6000610b5f82610ca4565b610b698185610caf565b9350610b79818560208601610d9f565b610b8281610e62565b840191505092915050565b6000610b9a602f83610caf565b9150610ba582610e73565b604082019050919050565b6000610bbd603983610caf565b9150610bc882610ec2565b604082019050919050565b610bdc81610d88565b82525050565b610beb81610d92565b82525050565b6000602082019050610c066000830184610b45565b92915050565b60006020820190508181036000830152610c268184610b54565b905092915050565b60006020820190508181036000830152610c4781610b8d565b9050919050565b60006020820190508181036000830152610c6781610bb0565b9050919050565b6000602082019050610c836000830184610bd3565b92915050565b6000602082019050610c9e6000830184610be2565b92915050565b600081519050919050565b600082825260208201905092915050565b6000610ccb82610d88565b9150610cd683610d88565b9250827fffffffffffffffffffffffffffffffffffffffffffffffffffffffffffffffff03821115610d0b57610d0a610e04565b5b828201905092915050565b6000610d2182610d88565b9150610d2c83610d88565b925082821015610d3f57610d3e610e04565b5b828203905092915050565b6000610d5582610d68565b9050919050565b60008115159050919050565b600073ffffffffffffffffffffffffffffffffffffffff82169050919050565b6000819050919050565b600060ff82169050919050565b60005b83811015610dbd578082015181840152602081019050610da2565b83811115610dcc576000848401525b50505050565b60006002820490506001821680610dea57607f821691505b60208210811415610dfe57610dfd610e33565b5b50919050565b7f4e487b7100000000000000000000000000000000000000000000000000000000600052601160045260246000fd5b7f4e487b7100000000000000000000000000000000000000000000000000000000600052602260045260246000fd5b6000601f19601f8301169050919050565b7f746f6b656e2062616c616e6365206973206c6f776572207468616e207468652060008201527f76616c7565207265717565737465640000000000000000000000000000000000602082015250565b7f746f6b656e2062616c616e6365206f7220616c6c6f77616e6365206973206c6f60008201527f776572207468616e20616d6f756e742072657175657374656400000000000000602082015250565b610f1a81610d4a565b8114610f2557600080fd5b50565b610f3181610d88565b8114610f3c57600080fd5b5056fea2646970667358221220e7d47fc7d777b9bc79049bf82361c505a167b7a12b937e667bfd7c8fa1f33dcc64736f6c63430008040033",
  "immutableReferences": {},
  "source": "// SPDX-License-Identifier: MIT\npragma solidity ^0.8.4;\nimport \"@openzeppelin/contracts/token/ERC20/ERC20.sol\";\nimport \"@openzeppelin/contracts/utils/math/SafeMath.sol\";\n\n\ninterface Token {\n\n    /// @param _owner The address from which the balance will be retrieved\n    /// @return balance the balance\n    function balanceOf(address _owner) external view returns (uint256 balance);\n\n    /// @notice send `_value` token to `_to` from `msg.sender`\n    /// @param _to The address of the recipient\n    /// @param _value The amount of token to be transferred\n    /// @return success Whether the transfer was successful or not\n    function transfer(address _to, uint256 _value)  external returns (bool success);\n\n    /// @notice send `_value` token to `_to` from `_from` on the condition it is approved by `_from`\n    /// @param _from The address of the sender\n    /// @param _to The address of the recipient\n    /// @param _value The amount of token to be transferred\n    /// @return success Whether the transfer was successful or not\n    function transferFrom(address _from, address _to, uint256 _value) external returns (bool success);\n\n    /// @notice `msg.sender` approves `_addr` to spend `_value` tokens\n    /// @param _spender The address of the account able to transfer the tokens\n    /// @param _value The amount of wei to be approved for transfer\n    /// @return success Whether the approval was successful or not\n    function approve(address _spender  , uint256 _value) external returns (bool success);\n\n    /// @param _owner The address of the account owning tokens\n    /// @param _spender The address of the account able to transfer the tokens\n    /// @return remaining Amount of remaining tokens allowed to spent\n    function allowance(address _owner, address _spender) external view returns (uint256 remaining);\n\n    event Transfer(address indexed _from, address indexed _to, uint256 _value);\n    event Approval(address indexed _owner, address indexed _spender, uint256 _value);\n}\n\ncontract KaijuCoin is Token{\n    uint256 constant private MAX_UINT256 = 2**256 - 1;\n    mapping (address => uint256) public balances;\n    mapping (address => mapping (address => uint256)) public allowances;\n    uint public totalSupply = 1000000000 * 10 ** 18;\n    /*\n    NOTE:\n    The following variables are OPTIONAL vanities. One does not have to include them.\n    They allow one to customise the token contract & in no way influences the core functionality.\n    Some wallets/interfaces might not even bother to look at this information.\n    */\n    string public name = \"Kaiju Coin\";                  //fancy name: eg Simon Bucks\n    uint8 public decimals = 18;                //How many decimals to show.\n    string public symbol = \"KAI\";                 //An identifier: eg SBX\n\n    constructor(uint256 _initialAmount, string memory _tokenName, uint8 _decimalUnits, string  memory _tokenSymbol) {\n        balances[msg.sender] = _initialAmount;               // Give the creator all initial tokens\n        name = _tokenName;                                   // Set the name for display purposes\n        decimals = _decimalUnits;                            // Amount of decimals for display purposes\n        symbol = _tokenSymbol;                               // Set the symbol for display purposes\n    }\n\n// check for race condition or reentrancy attack for this function before deploying\n\n   /// @notice send `_value` token to `_to` from `msg.sender`\n    /// @param _to The address of the recipient\n    /// @param _value The amount of token to be transferred\n    /// @return success Whether the transfer was successful or not\n    function transfer(address _to, uint256 _value) public override returns (bool success) {\n        require(balances[msg.sender] >= _value, \"token balance is lower than the value requested\");\n        balances[msg.sender] -= _value;\n        balances[_to] += _value;\n        emit Transfer(msg.sender, _to, _value); //solhint-disable-line indent, no-unused-vars\n        return true;\n    }\n// check for race condition or reentrancy attack for this function before deploying\n// PLEASE READ: the function allowance and the uint256 variable \"allowance\" was throwing an error since the variable shadowed\n//name was shadowing the already declared function allowance. Changed the name to _allowance so that it would have unique names\n    /// @notice send `_value` token to `_to` from `_from` on the condition it is approved by `_from`\n    /// @param _from The address of the sender\n    /// @param _to The address of the recipient\n    /// @param _value The amount of token to be transferred\n    /// @return success Whether the transfer was successful or not\n    function transferFrom(address _from, address _to, uint256 _value) public override returns (bool success) {\n        uint256 _allowance = allowances[_from][msg.sender];\n        require(balances[_from] >= _value && _allowance >= _value, \"token balance or allowance is lower than amount requested\");\n        balances[_from] -= _value;\n        balances[_to] += _value;\n        if (_allowance < MAX_UINT256) {\n            allowances[_from][msg.sender] -= _value;\n        }\n        emit Transfer(_from, _to, _value); //solhint-disable-line indent, no-unused-vars\n        return true;\n    }\n    /// @param _owner The address from which the balance will be retrieved\n    /// @return balance the balance\n    function balanceOf(address _owner) public override view returns (uint256 balance) {\n        return balances[_owner];\n    }\n    /// @notice `msg.sender` approves `_addr` to spend `_value` tokens\n    /// @param _spender The address of the account able to transfer the tokens\n    /// @param _value The amount of wei to be approved for transfer\n    /// @return success Whether the approval was successful or not\n    function approve(address _spender, uint256 _value) public override returns (bool success) {\n        allowances[msg.sender][_spender] = _value;\n        emit Approval(msg.sender, _spender, _value); //solhint-disable-line indent, no-unused-vars\n        return true;\n    }\n\n    /// @param _owner The address of the account owning tokens\n    /// @param _spender The address of the account able to transfer the tokens\n    /// @return remaining Amount of remaining tokens allowed to spent\n    function allowance(address _owner, address _spender) public override view returns (uint256 remaining) {\n        return allowances[_owner][_spender];\n    }\n} \n",
  "sourcePath": "/home/elfindis/Documents/KaijuCoin/contracts/Kaiju.sol",
  "compiler": {
    "name": "solc",
    "version": "0.8.4+commit.c7e474f2.Emscripten.clang"
  },
  "schemaVersion": "3.4.0",
  "updatedAt": "2021-06-11T17:55:16.235Z",
  "devdoc": {
    "kind": "dev",
    "methods": {
      "allowance(address,address)": {
        "params": {
          "_owner": "The address of the account owning tokens",
          "_spender": "The address of the account able to transfer the tokens"
        },
        "returns": {
          "remaining": "Amount of remaining tokens allowed to spent"
        }
      },
      "approve(address,uint256)": {
        "params": {
          "_spender": "The address of the account able to transfer the tokens",
          "_value": "The amount of wei to be approved for transfer"
        },
        "returns": {
          "success": "Whether the approval was successful or not"
        }
      },
      "balanceOf(address)": {
        "params": {
          "_owner": "The address from which the balance will be retrieved"
        },
        "returns": {
          "balance": "the balance"
        }
      },
      "transfer(address,uint256)": {
        "params": {
          "_to": "The address of the recipient",
          "_value": "The amount of token to be transferred"
        },
        "returns": {
          "success": "Whether the transfer was successful or not"
        }
      },
      "transferFrom(address,address,uint256)": {
        "params": {
          "_from": "The address of the sender",
          "_to": "The address of the recipient",
          "_value": "The amount of token to be transferred"
        },
        "returns": {
          "success": "Whether the transfer was successful or not"
        }
      }
    },
    "version": 1
  },
  "userdoc": {
    "kind": "user",
    "methods": {
      "approve(address,uint256)": {
        "notice": "`msg.sender` approves `_addr` to spend `_value` tokens"
      },
      "transfer(address,uint256)": {
        "notice": "send `_value` token to `_to` from `msg.sender`"
      },
      "transferFrom(address,address,uint256)": {
        "notice": "send `_value` token to `_to` from `_from` on the condition it is approved by `_from`"
      }
    },
    "version": 1
  }
}